:020000040000fa
:10000000f83f00209d250000bb1500007f21000067
:1000100000000000000000000000000000000000e0
:10002000000000000000000000000000830d000040
:100030000000000000000000830d0000830d0000a0
:10004000830d0000830d0000152c0000830d0000bf
:10005000830d0000830d0000830d0000830d000060
:10006000830d0000830d0000830d0000830d000050
:10007000830d0000830d0000830d0000830d000040
:10008000830d0000830d0000830d0000830d000030
:10009000830d0000830d0000830d0000830d000020
:1000a000830d0000830d0000830d0000830d000010
:1000b000830d0000830d0000830d0000830d000000
:1000c000830d0000830d0000312b0000830d000024
:1000d000830d00006b2d0000830d0000830d0000d8
:1000e000830d0000830d0000830d0000830d0000d0
:0400f000830d00007c
:020000040000fa
:1000f400f8b5c046f8bc08bc9e4670477528000099
:10010400f8b5c046f8bc08bc9e46704751280000ac
:020000040000fa
:08011400540900000100000085
:020000040000fa
:10011c00f0b59bb013930b6815900a938b680d91f7
:10012c000b930b694d681893cb6802931368089373
:10013c0053680898069300220023069902f020fccd
:10014c0060b90a9b5b0738d408200a9b03400993cb
:10015c000b9b0393099b7bb1202306e080221206a4
:10016c009446069b634406932d23029a13700b9bb3
:10017c00013b039301230993069b08995b005b08e1
:10018c008f4af1b993421cd10299139b8c46099a60
:10019c00413b624410008b49192b10d803f00bf82b
:1001ac00029802f0faff0a9b0200009302990b9b43
:1001bc00159801f069ff1bb0f0bd2b23d5e7043176
:1001cc00ece7934202d80fd1089b6bb10299139bb9
:1001dc008c46099a413b624410007a49192b01d88c
:1001ec000831dbe70c31d9e7002200230898069987
:1001fc0002f087fd0026744f0024e8bb040002e0e7
:10020c000134049e059f0022704b3000390001f030
:10021c0025f9089a069b0490059102f092fb0028a0
:10022c00eed0002304931fe0694b9c4213da049b2d
:10023c008bb90022674b0898069901f00ff9654bb2
:10024c000890069130003900002201f007f90123d3
:10025c0006000f0004933000390000225b4b01f0c4
:10026c0015fc06000f00013c32003b000898069973
:10027c0002f086fb0028d7d1139802f087ffc3b297
:10028c000c93002d00da8be10493672b00d0a7e0d0
:10029c00002d00d180e1231d02dbac4200da9be093
:1002ac006523abe0002200230e920f93f7e0069635
:1002bc000797049b2600652b00d00ee100260ce16d
:1002cc00129b5bb9002e09da029a14992e335354ff
:1002dc00039b0137013b039301231293ea193b0063
:1002ec009446302102e0029ad15401339c45fad154
:1002fc00039aeb19551b029a30305f1cd0546b1ebd
:10030c000393002522e00d9b14971b691093053b6a
:10031c00bb4200d8eae0069a079b08980e9901f0b8
:10032c00b5fb01f013fc1090119102f0a1fc09280f
:10033c0000dd092010230a9a13400343002bbfd180
:10034c000c9b672bbcd1002ec8da0135802000062f
:10035c0084460e99089a61440b00109811990092ea
:10036c000193069a079b02f0fbfe80231b06cb1819
:10037c0008900e93069807990022144b01f086fb07
:10038c00013e06900791ade00a9bdb0600d4b1e07c
:10039c002e23029ad3550137ace094fbf6fc614650
:1003ac007143611a029c3031013be154039964465c
:1003bc0001390391b1e0029a125c1a540138dbe066
:1003cc000000f07f5c3100000000f03f0000244092
:1003dc00d4feffff00005043002c0eda662304937a
:1003ec00049b0135662b0ad1002c02da002600246e
:1003fc006e4f0c9b672b00d02d1966230493089b22
:10040c000e960f971293069b1093002314930e9a3b
:10041c000f9b1298109901f039fb01f097fb169085
:10042c00179102f025fc1990802000068446109943
:10043c00129a61440b0016981799009201930e9a28
:10044c000f9b02f08dfe80231b06cb18129010938d
:10045c000e980f99564b002201f018fb149b0e902e
:10046c000f91013314939d42d1d10022514b00f0d6
:10047c00f5ff0e900f9102000b001298109902f0ec
:10048c007ffa002800d00de70e9a0f9b1298109956
:10049c0002f037fc18b1199bdb0700d402e70e9a67
:1004ac000f9b0898069900f0dbfe002208900e9135
:1004bc003f4b3000390000f0d1ff089a0e9b06909c
:1004cc00079102f07bf9002800d1f0e6049b01347f
:1004dc00662b00d0ede626000135731b0025099f25
:1004ec0016931295169b9e4200d00ce7129b002b84
:1004fc0000d149e70022029bd819049b0270652b9e
:10050c002ad1189b0299013bca54944201da6442e5
:10051c00013203250a2618996d1a002c00d03ce7ed
:10052c00e918002900dd38e75d1e2d2102b90239da
:10053c00029a023b5155139a413a192a01d8452285
:10054c000492029ad118049a0a70039a023a0392fe
:10055c009f4201da02f02ffe03230a9a1340022b6a
:10056c0000d01de6039b002b00dc19e6029802f07c
:10057c0014fe029b039a9b18099a824200dc1ae72c
:10058c001300029a3021944663441800039a02f037
:10059c00cffd00230b9303e601257ce606257ae6c6
:1005ac000c9b672bfad00493062519e70000f03f4b
:0805bc0000002440000014407f
:020000040000fa
:1005c400f0b599b015930b6814900b934b680d9389
:1005d4008b680c930b691193cb680393136809938d
:1005e40053680998089300220023089902f0ccf973
:1005f40068b90b9b5b073ad408200b9b0c9d034006
:1006040006938bb12023039a013d13700ae08022e4
:1006140012069446089b634408932d23039a13708f
:100624000c9b5d1e01230693089b099a5b005b08e3
:10063400fab9b64a93421cd10399159b8c46069a83
:10064400b34c6244413b10002100192b00d9211df9
:1006540002f0b5fd201d02f0a4fd0b9b02000093e7
:1006640003990c9b149801f013fd19b0f0bd2b23d2
:10067400d4e7a64a934202d814d1099b93b10399b3
:10068400159b8c46069aa24c6244413b1000210003
:10069400192b05d8083102f092fd20000c30dae75e
:1006a4000c31f8e7069b03995a1c302306980b5427
:1006b400159b413b0e930e995823192900d92033d9
:1006c400069909980231069103998b54ab1e0a933b
:1006d40000220023089902f018fb002800d164e1ed
:1006e40000238c4c0793049305940d9b1093002bcb
:1006f40001da182310930023049e059f099d089c8a
:100704003200129328003b00210001f0c3f901f0ec
:1007140021fa32003b001690179100f0a3fe02006c
:100724000b002800210002f0f6fc7b4b05000c00b6
:1007340030003900002200f095fe129b06000133c0
:100744000f930d9b0f00002b06da002200232800d4
:10075400210002f0dafa30b9109b129a934200ddbc
:1007640029e101330f9300226c4b3000390000f073
:1007740079fe06000f0002000b002800210002f0a1
:1007840003f9002800d018e132003b0028002100c2
:1007940002f0bbfa30b11698179902f06dfac3074c
:1007a40000d40ae1089932003b00099800f05cfd8e
:1007b400109149000890490818b9544b994200d146
:1007c4003ae700252f00069c0995119b2600053b5e
:1007d400a3422dd9049a059b0898109901f05af95f
:1007e40001f0b8f91290139102f046fa03000028c0
:1007f40000d0e5e0002f00d1e2e00135049a059b2a
:100804001298139900f02efe02000b00089810991c
:1008140002f081fc404b0890109100220498059945
:1008240000f020fe0f9b013704900591bb42ccd110
:10083400099be3b9002d00d104e10d9b002b00dce2
:1008440000e10b9bdb0700d5fce02e22039b039900
:100854001b191a702a198a183021597001339a42c7
:10086400fbd12c19ed430a9b0134eb180a930022a7
:10087400039b03991819119b0270013bca540799f1
:10088400914202da4a4207920122022511990a266c
:10089400691a8c460799002900d0bee06146c91840
:1008a400012900d1b9e05d1e2d2102b90239039a54
:1008b400023b51550e995022192900d9203203992f
:1008c400c9180a709c4201da02f079fc03230b9ade
:1008d4001340022b17d10a9d023d002d13dd03980e
:1008e40002f05ffc039b5b19069a904200dba4e0d4
:1008f4001300039a30219446634418002a0002f03e
:100904001bfc00230c930398a5e6c0460000f07f6f
:100914004c3100000000f03f0000b03f00002040d8
:10092400079b0494059501330793049a059b1000d3
:10093400190000f099fc04000d0002000b00099856
:10094400089902f021f80028ead0049a059b099836
:10095400089902f019f8002800d1c6e60498059910
:1009640000223d4b00f07efd0022002302f0cdf971
:1009740078b1049805990022384b00f073fd0022e9
:1009840004900591354b0998089900f06bfd099086
:100994000891314b04980599002200f063fd079bf0
:1009a40004900591013b0793cfe700232c4c07905b
:1009b40004930594b9e70f9ba2e600260027f1e60d
:1009c400099a4ab947b103992e328a550a9a0134d1
:1009d400013a0a92012209922e1903e03021039a66
:1009e40011550134b442f9d118000a9a5730551bf5
:1009f400092b01dc303318000e9b192b06d8202359
:100a04000343613b192b01d802f0d2fb039b741cf6
:100a140098556b1e0a930025f0e60799079d91fbf4
:100a2400f6f731007943691a039d3031013be954eb
:100a34000a99079701390a912ce7039a125c1a5410
:100a4400013851e70b9bdb0600d410e72e23039af1
:100a5400135501340be7c0460000e03f000050434b
:040a64000000f03f5f
:020000040000fa
:100a6800f0b585b000930393009b02900c0016002c
:100a7800150001900f00002b00d0c9e08a424ad926
:100a8800100001f0f9ff48b12023019f1b1adf4035
:100a9800019b84408340854027430193aab22b0cd5
:100aa800b7fbf3f1160094461a004a434e43bf1aa7
:100ab800019a3f04140c27430a00be4207d97f1944
:100ac800013abd4203d8be4201d98a1e7f19be1b16
:100ad800b6fbf3f14b436446f61a6b464c439b88ce
:100ae80036041e430f00b44207d97619013fb542b8
:100af80003d8b44201d98f1e76191204341b3a4325
:100b08000a9b23b1c4401c6000230a994b60100063
:100b1800009905b0f0bd02b9ffde100001f0acff8e
:100b2800b8bb0123a41b00932b0cb4fbf3f21f00ea
:100b380011005743aeb27143e41b019f24043f0cdc
:100b48003c439446a1420ad9012764197f42bc4418
:100b5800a54204d8a14202d9023a94466419641afb
:100b6800b4fbf3f77b43e41a6b467e439b8824046b
:100b78001c433900a64207d964190139a54203d894
:100b8800a64201d9b91e641963461a04a41b0a4374
:100b9800b6e7202223000199121ad3408440d1409d
:100ba800019a8540824021438c46290cb3fbf1f41d
:100bb80001920a00624326009b1a6246afb27e4346
:100bc800120c1b04134322009e4207d95b19013af9
:100bd8009d4203d89e4201d9a21e5b199b1bb3fb01
:100be800f1f671435b1a614677438cb21b041c43d0
:100bf8003100a74207d964190139a54203d8a74291
:100c080001d9b11e641912040a43e41b00928be750
:100c1800009b8b420ad90a9b002b00d1abe0029ab9
:100c280059601a60002300931a0070e7039801f0d6
:100c380023ffd8b9039ba34203d3029b02009e4221
:100c48000ad8029b01229e1b039b0196e41a029b71
:100c5800b342ad416d42671b0a9b0093002b00d144
:100c680055e7019982c30023009350e720231b1afc
:100c780001933300019a039fd34087401f43230009
:100c88000199d340029a8440ca4022439446029a6a
:100c9800390c8240b3fbf1f402920a0086406243a9
:100ca800009626009b1a6246bdb26e43120c1b04c6
:100cb800134322009e4207d9db19013a9f4203d809
:100cc8009e4201d9a21edb199e1bb6fbf1f46346b6
:100cd80061436543761a360499b20e432300b54240
:100ce80007d9f619013bb74203d8b54201d9a31e6b
:100cf800f61912041a436b461c88009b711b8c461c
:100d0800190c230096b2150c6c4373434d43714381
:100d18001e0c091971188c4202d9802464022d19fd
:100d28000c0c9bb209046519c918ac4503d30bd147
:100d3800029b8b4208d2009b013ace1ab1428941ec
:100d48004942cf193100ed1b0a9b0093002b00d1bb
:100d5800dde6029b019c591a63465d1b029b8b4290
:100d68009b415b42ed1a2b00c140a340c54019438b
:0a0d78000a9b22c377e70a9b55e7a8
:020000040000fa
:020d8200fee78a
:020000040000fa
:100d84000023f0b506001500afb005910193059955
:100d94000b78002b00d10ce101235b420a930eabcc
:100da40000240c93802309940b940d930b5d0bb1d9
:100db400252b29d134b12200300001f0f0fe059b2f
:100dc4001b190593059b1a78252a00d0e6e040f20a
:100dd400020c102108270133029305930598037828
:100de4002b2b1bd025d8202b1bd0232b1dd02a2bfb
:100df4002ad001f08bfd0b90059b1a78303a092a12
:100e040033d801330593f7e70134cfe70122099b77
:100e140080180393134309930590dfe70423099a89
:100e24000ee0099b03933b430be0099b03930b43a5
:100e340007e02d2bead0302bd9d16246099b0393ce
:100e4400134309930130e7e72b6801301a1d1b682f
:100e540005902a600b93002b07da099a5b420392f0
:100e6400012203990b934a400992099bda0702d5a0
:100e7400022293430993059b1a782e2a0ed100224d
:100e8400581c0a9205905a782a2a28d102330593cd
:100e94002b681a1d1b682a6003930a9305a801f0a6
:100ea4009bfe059b0700187802f074f9692800d1ad
:100eb40082e035dc632800d1d2e01bdc252800d198
:100ec400dbe0612859d0252306aa1370029b059301
:100ed400002309930b93013b0a930233aee001f024
:100ee40015fd0a90059b1a78303a092ad6d80133a1
:100ef4000593f7e764285fd06728e4dc2a0039000b
:100f040006a801f072ff002800d1a5e0059b09a9fd
:100f14005a1c05921b7806aa3000fff7fdf83ce046
:100f2400702800d17ae016dc6e2800d18de06f289d
:100f3400c9d12b000022390006a800f069fe002860
:100f440000d189e0059b06aa013309a93000059365
:100f540001f04cf921e075283fd078284dd0732852
:100f6400b1d1802f00d077e0059b2a680133059327
:100f7400131d2b601268002360e02a00390006a8c4
:100f840001f033ff002867d0059b09a95a1c05927c
:100f94001b7806aa3000fff713fb2418019b1c19c9
:100fa400a34200dc71e04f22394b1a6001235b42fb
:100fb400019301982fb0f0bd2b000122390006a83f
:100fc40000f026fe002847d0059b06aa013309a994
:100fd4003000059300f077fedfe72b000022390094
:100fe40006a800f015feb8b3059b06aa013309a9ab
:100ff4003000059301f07afacfe72b000022390084
:1010040006a800f005fe38b3059b5a1c05921b7810
:1010140006aa09a9300000f03efcbee72b0000221e
:10102400f02106a800f0f4fdb0b1059b079a013346
:101034000593069b134333b9164a163209a93000a7
:1010440001f09afba9e77823e2e7019b39001a191a
:1010540006a82b0001f001f9059b013305939de7d8
:10106400802ff9d1059b013305932b681a1d1b684a
:101074002a6006aa13700123e0e7802fecd1059bb8
:1010840006aa013305931070f5e701947fe6c04684
:08109400b0060020f02f00005f
:020000040000fa
:10109c00680600201c0000000000000090060020e4
:1010ac000800000000000000840600200c00000076
:1010bc00000000009806002008000000000000005e
:1010cc00b80600200200000000000000ba06002054
:1010dc000200000001000000d0070000a80600205c
:1010ec000400000000000000180600205000000062
:1010fc0000000000bc0600206c0000000100000095
:10110c00c8060020c4060020c8060020000000000d
:10111c002500000008000020000400000000000072
:10112c0000000000000000000000000000000000b3
:10113c00000000000000000000000000ff31000073
:10114c000000000000000000000000000000000093
:10115c00c72200000000000000000000000000009a
:10116c000000000000000000000000000000002053
:10117c000804000000000000880700202000000088
:10118c00010000000100000003000000000000004e
:10119c000000000000000000000000000000000043
:1011ac00a0060020a006002008000000000000009f
:1011bc00ac06002004000000000000000804002021
:1011cc001002000000000000280700206000000052
:1011dc0001000000010000000300000000000000fe
:1011ec0000000000000000000000000000000000f3
:1011fc00412400000000000000000000000000007e
:10120c00cf310000072a00000000000000000000a1
:10121c0000000000000000000000000000000000c2
:10122c0000000000000000000000000000000000b2
:10123c0000000000b00600200400000000000000c8
:10124c00b4060020040000000000000000000000b4
:10125c000000000044444444444444444444444452
:020000040000fa
:10126c00f0b40125ed070f005f405ad48b4200d13a
:10127c00824205d950404240504059404b40594061
:10128c004e18760ddf187f0d3bd0741c640529d0e9
:10129c00f41b352c26d80e0ddb022b43db0ac902be
:1012ac002943c9121700202c1ed2e741e2405740b7
:1012bc00e3415a40a340e3405a400024801859416e
:1012cc000ad3b21c520521d0c207012f624117006c
:1012dc004008cb0718434908013636054208af4190
:1012ec0060417141f0bc7047203c06d01f00e741c3
:1012fc00e3405f400024012a6741c0186141ebd3f1
:10130c00dfe7002eeed129400020ebe70136310556
:10131c000020e7e7e742e5d10020c143090dc904ed
:10132c00e0e76b400e00871a9e4104d26e40c01b52
:10133c00b141d21973414e18df18ac0ae642e9d21a
:10134c00760d7f0d31d0f41b362ccbd8b4460e0d58
:10135c00db022b43db0ac9022943c90a012c32d810
:10136c0004d1d4075208df073a435b08ef0a644202
:10137c00904199411ed0002239424dd1241940414f
:10138c0049410124394204d1013400184941394200
:10139c00fad06246a24204d9361b013e36058919a1
:1013ac00a0e7f10ac90700209ce736429ad1002039
:1013bc00002197e70200224394d0b842ded201000c
:1013cc0020002024e3d1202c13dd203ce241170027
:1013dc00a240e2405740e3415a40a340e3405a4008
:1013ec00012fbf410137174300227c4298419141a4
:1013fc000ce01700e741e2405740e3415a40a3405c
:10140c00e3405a407c429041994100220f0303d2a1
:10141c00013e241940414941013e36054708ac4183
:08142c0050417141f0bc704712
:020000040000fa
:1014340006d128b9f54203d800d30ab96d0d09d1f4
:101444000020c143090dc904f0bdf9d11242f7d1fe
:10145400640df5d00020c14349054908a6e00020e9
:101464006146f0bdf0b50127ff070e005e403e4027
:10147400b446be0a4c18dd18f442d9d2f542e4d27f
:10148400640decd06d0dead06419c9023943460de0
:10149400c0023143db023b43db0a10b48e4685b203
:1014a40097b26f43140c6c433e0ca419260c24040d
:1014b400bfb227439cb26c43a419190c6943250c91
:1014c400a4b249190d04090c6419000c95b24543e2
:1014d4003e0c76193743bfb2360c150c4543ad1993
:1014e400a6b2240cad192e0437432e0c36199db226
:1014f4004543ad19acb22e0c89191d0c45436d182a
:101504002e04290c3443704680b295b245433e0cf8
:1015140076193743bfb2360c150c4543ad19a6b244
:10152400ad19240c2e0437432e0c36199db24543b5
:10153400ad19acb22e0c89191d0c45436d182e043f
:101544003443290c75462d0c90b268433e0c801927
:101554000604bfb23e43070ca0b23f18120c6a4304
:10156400d019020c80b2240ca4189ab26a4312193e
:1015740014042043120c89181b0c6b43c91810bcab
:1015840001273d05294203d1b61940414941013c97
:10159400ff077d0d013d641b0bdb6d00ac4209dad6
:1015a400240500254208be41684161416646314335
:0615b400f0bd54e74ee714
:020000040000fa
:0215ba00fee74a
:020000040000fa
:1015bc00f0b587b0039003a801f064f9002802dab3
:1015cc00002007b0f0bd039b1b095d1e202d0ad91e
:1015dc0040f2ff12023b934224d84d4adb089b1881
:1015ec00043b1d7801352a000120002101f02cfd5f
:1015fc00002443428c4100930194464c009822688d
:10160c0063681040020001990b401a43f2bb039b24
:10161c0005a81033059301f023fd50b90c223e4b65
:10162c001a60cee73a4adb099b18043b1d7811354a
:10163c00d9e73a490c68a04206d0059b0400103b40
:10164c0005930123103483600125059be2180a6081
:10165c002b43083a083c28c26360002cb0d0200011
:10166c0001f020fb58b123686168ab43e31a5a6858
:10167c00aa4352185a606168a94362501c002000aa
:10168c00039901f0ebfb200008309ae7204a24492b
:10169c003c3290bb584203404b43db0ed65c2036a9
:1016ac00300001f091fc731cdb001a4ae458083b33
:1016bc009b189c42a1d0272e25dd0235ae4201dcc1
:1016cc003f2e20d101226368039f9343dd1b28002a
:1016dc00009301f093f9864215d1e268a168e319f1
:1016ec00da60996093609a68d360012217431f6097
:1016fc005d60009be5506760c1e7434203404b438c
:10170c00db0ed65ccce73100200000f0bdffb6e765
:10171c00e423000010040020b00600200804002080
:04172c0029e66b0738
:020000040000fa
:1017300041f20003c4f2000342221a7641f2004350
:10174000c4f2000300221a7441f60043c4f20003fd
:101750000632ff32c0f204025a6241f60042c4f27d
:101760000002082153681942fcd141f60043c4f23b
:10177000000380224121995041f60042c4f2000248
:101780008020013913581942fcd041f20003c4f201
:10179000000320225a631f321a6341f20002c4f28e
:1017a00000023c200421135c0b42fcd141f20003f7
:1017b000c4f200032c224221995441f20002c4f2e7
:1017c00000023c204039135c0b42fcd141f2000284
:1017d000c4f2000240200321135c0b40032bfbd119
:1017e00041f60043c4f2000340f20712c0f20202c5
:1017f0001a6241f60042c4f2000204215368194201
:10180000fcd141f60043c4f20003982240219950d4
:1018100041f60042c4f20002982013581942fcd04d
:1018200041f60043c4f20003ac224021995041f636
:101830000042c4f20002ac2013581942fcd041f619
:101840000043c4f20003b8224021995041f60042ff
:10185000c4f20002b82013581942fcd041f60043ec
:10186000c4f20003c0224021995041f60042c4f264
:101870000002c02013581942fcd041f60043c4f2c4
:101880000003c8224021995041f60042c4f20002f0
:0a189000c82013581942fcd070471d
:020000040000fa
:10189a00f0b58fb00d934b680c9006938b680d00d2
:1018aa000793cb6816000393069b0f68002b42db55
:1018ba0002239f4310233b400a93079b04930a9bee
:1018ca003bb1726833681343079a13b11300023ba2
:1018da00049308233b400b935a1e9341049ad31a4c
:1018ea0004933368039a0893736809932b695c1eff
:1018fa0000231355069b0593012c1fdc0a9b002b22
:10190a0051d10b9b1bb12023039a013c13552b6920
:10191a0000975a1e039b121b19190c98079b00f07b
:10192a00b4fb0c9b5b68db0503d56b68984200da55
:10193a0018000fb0f0bd01230693bbe7089b099a74
:10194a00134363b9059b002b09dc069a049b9b1a77
:10195a00059a9b18002bd1dd02231f42ced00f22fd
:10196a00089b013c134018005730092b01dc303327
:10197a0018000d9b413b192b06d820230343613bda
:10198a00192b01d801f011fc039b1855059b013b4b
:10199a000593099b1a07089b1b091a43099b08927e
:1019aa001b090993a8e70cce1343002ba9d0039b6c
:1019ba000d9a1b19013b1a703023039a023c1355e6
:0219ca009fe795
:020000040000fa
:1019cc00f7b5002856d00838436801221e0096430c
:1019dc0085192a680400934200d0ffde22686b68e8
:1019ec001340012213420fd1200001f05bf90028b3
:1019fc0041d1280001f06ef90028efd001226b686c
:101a0c009343f618ed18e9e7012333436360300084
:101a1c002b6000f0f3ff019001f0d6fa22686b689e
:101a2c00134001221342dfd0174f019a38687968ae
:101a3c0001f0fefa012318420dd1019a0120002178
:101a4c0001f002fb0b0010b13a6802433a6013b18b
:101a5c007b680b437b60019b0b4a0133db009b18bb
:101a6c001a005b68083a66602e60e360a260d4607e
:101a7c00e3689c60f7bd012223689343e41a636812
:0c1a8c009343f618b5e7c0461004002094
:020000040000fa
:101a9800f0b40125ed070c005c402c40a446ae0aca
:101aa8004c18df18f4423dd2f74244d2640d4ad0b4
:101ab8007f0d3bd0e41bc9022943cf0adb022b432d
:101ac800db0a0600b61a9f4104d2013cb6197f41d1
:101ad800b6185f416812800d241836dd001884425c
:101ae80024d8e80c0021b6197f41b61a9f4103d3c8
:101af80040414941f7d304e0b6185f410018494115
:101b0800f1d32405b6197f41b61a9f4105d337434f
:101b1800c20717430022012f504161416246114319
:101b2800f0bc70470ad148b9f74207d20020c14338
:101b3800490d0905f2e70ab9f74206d00020c1436a
:101b4800090dc904ece77f0df8d000206146e7e7ee
:020000040000fa
:101b580040f2fd724b005b0df0b55c1e944242d81a
:101b6800284a9e182ad4332e27dc274a9b182ed4bd
:101b7800120cc0f20f02da404ff6ff730700c0f2f2
:101b88000f039743f3403c000f00024019409f4366
:101b98000a433d007ab1002f0dda20235b42f11889
:101ba80029d480204003c840020080214903f14025
:101bb8000b00a4185d4120002900f0bd0020002979
:101bc80001db0021f9e70021cbf6f071f5e72022cf
:101bd8004ff6ff73921bc0f20f039340012252424b
:101be800f2401a43c8e7002be7d10022c90fcb0700
:101bf80010001900e1e720218020891b400388405c
:0c1c08000200d2e701fcffffe1fbffff40
:020000040000fa
:101c140010b588293ad014dc81294ad003dc802904
:101c240047d0002010bd822910d08429f9d1196829
:101c34002ab30a1d1a6000228b5e0360db1743601f
:101c440010e0a0292ed00fdc9029ead119680724ce
:101c54006ab30919a1430a0008321a600b684c6878
:101c6400036044600120dde7c02901d0f029d8d108
:101c74001a68111d1960136803600023dfe70c1d47
:101c84001c600b689bb203604260ebe7196822b1e9
:101c94000a1d1a600023cb56cfe70c1d1c600b688d
:101ca400dbb2f0e71a68111d19601368c5e7073144
:101cb400d0e719681ab10a1d1a600b68bde70c1d3c
:061cc4001c600b68dfe765
:020000040000fa
:101cca00f0b54b6889b005930b6807009c460793eb
:101cda00cb680c008e6810685168cd0f0493002df4
:101cea0041d00b000200002150429941059b002b74
:101cfa0007db022263469343079315b9079b5a07ea
:101d0a0028d5731e07aa02920a22009301920b0099
:101d1a000200200000f0bbf815b9079b5a071dd531
:101d2a0001382d2305b9023b049a135423695a1e1c
:101d3a00049b121a1918079b38000093330000f00d
:101d4a00a4f97b68db0503d56368984200da1800ba
:101d5a0009b0f0bd1b07db0ff31ad3e71b07e5d564
:0e1d6a0001382023e0e7059b002bc2dac6e714
:020000040000fa
:101d780042f20043c4f2000301221a8042f20042f8
:101d8800c4f20002012113691942fcd142f2004356
:101d9800c4f200031a4a1a8042f20042c4f2000256
:101da80048f2000113691942fcd142f20043c4f21f
:101db800000300221a8442f20042c4f200022021e9
:101dc80013691942fcd142f20043c4f20003002215
:101dd8005a8442f20042c4f20002402113691942b7
:101de800fcd142f20043c4f2000300229a8342f27b
:101df8000042c4f20002102113691942fcd1704755
:041e08000489ffff4b
:020000040000fa
:101e0c000a0d2d2d2d2d2d2d2d2d2d2d2d2d2d2d39
:101e1c002d2d2d2d2d2d2d2d2d2d2d2d2d2d2d2de6
:101e2c002d2d2d2d2d2d2d2d2d2d2d2d2d2d2d2dd6
:101e3c002d2d2d2d2d2d2d2d2d2d2d000a0d202050
:101e4c0020202020202020202020202020496e69c6
:101e5c007469616c697a6520436f6d706c6574652b
:101e6c00642000000a0d202020202020202020208b
:101e7c00202020202020202041444320496e6974da
:0c1e8c0069616c697a6564200000c04642
:020000040000fa
:101e9800f0b5050085b019000c9b100001931a6875
:101ea8002b696c68013bef681d00002c00da0124e7
:101eb80040f2000c664640f2020cfe540a9e0123d2
:101ec800361b0296664616400b9ad2170392002dcf
:101ed80003dcbbb1280005b0f0bd02000a433ab9e3
:101ee800002c05dc029a1219002af2dd002ef0d02f
:101ef8000b9a039b00f0e8fc013d130030327a5541
:101f0800013ce4e71023019a12689a431300019aee
:041f18001360dfe78c
:020000040000fa
:101f1c00f0b51600050002278369426987b0029369
:101f2c00d31a03939b1904910596019302ac3a00c2
:101f3c002100286800f07eff019b984208d1ab6815
:101f4c00ea68ab619a18aa626b61300007b0f0bd09
:101f5c0000280cda102200236968ab620a43ab61db
:101f6c006b616a60022f12d06368f61aede7019b71
:101f7c001b1a01936368984202d9c01a0834013fb6
:101f8c0023681b1823606368181a6060cfe71e0073
:021f9c00dbe781
:020000040000fa
:101f9e00f8b5846a05000f00160054b1ab6a6a6981
:101fae009b1ab3420cd2320039002800fff7afff64
:101fbe0005e001f030f803002000002beed0f8bd54
:101fce00002ef0d02b0034331b785bb2002b1bdbc2
:101fde003400dbb2621eb95c994212d12200390084
:101fee002800fff794ffa042e9d33f19341b2200cb
:101ffe003900686901f06ff86b6930001c196c616b
:0c200e00dde71400002ae5d13400f0e703
:020000040000fa
:10201a0070b5002000f083f900f07aff62b64ff63f
:10202a00837000f0b5ff00f084ff42f6cb10c0f2d7
:10203a000000002101f0a4f841f60c64c0f200048b
:10204a00200000f086ff20003c3000f082ff00f004
:10205a003dff00f017ff2000643000f07aff40f2e5
:10206a00ba65c2f2000540f2b864c2f200042888d8
:10207a00013080b2288000f03aff01f07af820801f
:0a208a00208880b201f00df8f1e7a4
:020000040000fa
:10209400f0b51d00012389b014000e9a06001a4001
:1020a400039102920ab9a5420ad82200039930008a
:1020b40000f075fda54203d82500280009b0f0bd45
:1020c4002f1b01973a00102f00d91022202104a8b9
:1020d40001f032f8019b0f2b0ed80f2204a93a40cd
:1020e400300000f05cfd029b002be6d12200039936
:1020f400300000f054fde0e7102204a9300000f0a5
:0a2104004efd019b103b0193e4e740
:020000040000fa
:10210e0041f60043c4f2002301221a7041f6004248
:10211e00c4f200220121138c0b42fcd146f22003a3
:10212e00c0f280031b681a0240f200710a400721b8
:10213e009b065b0f1a4341f60043c4f200239a85b7
:10214e00597003225a73052098701a81fd325a81f4
:10215e0092001a820022da81997104325a7141f684
:10216e000042c4f20022138c9bb2002bfbd17047ad
:020000040000fa
:02217e00fee77a
:020000040000fa
:102180000021f0b5174b184a934208d340f20b0ccc
:102190000027164a1368516823b919b9f0bd1970a0
:1021a0000133f1e7100095680c305c18b5b1654655
:1021b000ed1a5219a3420ad10b00032213405a1ef2
:1021c000934189085918890040180200e2e75d1c14
:1021d000ae5c1e702b00ede71f700133a342fbd1f4
:1021e000f3e7c04600000020000000209c10000023
:020000040000fa
:1021f000f0b50b680c008f68cd68496887b00600a1
:102200000593002902db02218b43059305a953683e
:10221000126802910821009701912000fff73cfe0f
:10222000059bdb0602d5302301382b54059b1b0789
:1022300002d5202301382b54236929185a1e059be7
:10224000121a009330003b00fff724ff7368db0590
:0e22500003d56368984200da180007b0f0bdad
:020000040000fa
:10225e0010b584291fd007dc812915d0822922d000
:10226e00802911d0002010bd90291cd008dc8829af
:10227e00f8d119680c1d1c600b6803601a7010e011
:10228e00a02901d0c029edd119680c1d1c600b6866
:10229e0003601a6005e019680c1d1c600b68036072
:1022ae001a800120dfe719680c1d1c600b680360a3
:0822be001a60d2175a60f4e720
:020000040000fa
:1022c6007fb51600c2680d0013000091591e8b41a0
:1022d600f31a019383680400039269460222006898
:1022e600029300f096fd002808dc1822082302401d
:1022f600534062681343636006000fe0019b83420c
:10230600fad2a268c01ae3681018e26320642bb1ff
:10231600531ce3631378ad19013d2b70300004b0f4
:0223260070bd88
:020000040000fa
:1023280010b544f20003c4f2001304225a6000f00e
:10233800c1fb40f2c063c2f200031b6818680021a9
:1023480000f0c3fe40f2a473c2f200031b681868d1
:10235800002100f0bafe00f0cafbfff7e5f900f033
:10236800abfe00f08afe00f069f9fff7ccfefff73c
:10237800fffc00f08ef800f098fd00f0e1f810bdc9
:020000040000fa
:1023880000230e4a10b513600d4a0e4c13600e4a16
:1023980013600e4a13600e4a13600e4a53621361ab
:1023a8000133936000f0befe00f047f90a4b9c42ef
:1023b80000d310bd08cc9847f8e7c046ac0600200b
:1023c8002406002000010000200600201806002036
:0c23d8001c060020280600200401000064
:020000040000fa
:1023e4002021222324242525262627272828282897
:1023f400292929292a2a2a2a2b2b2b2b2c2c2c2c31
:102404002c2c2c2c2d2d2d2d2d2d2d2d2e2e2e2ef8
:102414002e2e2e2e2f2f2f2f2f2f2f2f000117026e
:102424001d1813031e1b190b1408040d1f161c1270
:0c2434001a0a070c1511090610050f0efe
:020000040000fa
:1024400070b504000d0008b9002070bd43689b06fc
:1024500007d543698269934215d80023a362a3611b
:102460006361e16b236c994204d2c91a012220688e
:1024700000f0cafe00232364e363002de4d020684b
:1024800000f0bafee1e70022c36a110098476369d1
:0a249000002be2d101204042d7e703
:020000040000fa
:10249a0041f20003c4f2002301221a601203c4f2bb
:1024aa000022012113691942fcd141f20003c4f24e
:1024ba00002340f210621a6003221a737a329a8356
:1024ca004a3a9a7240f29862c2f2000200211160fe
:1024da0001225a721202da801201c4f2002213692e
:0624ea00002bfcd170473d
:020000040000fa
:1024f000f0b50b680c008f68cd68496887b006009e
:102500000593002902db02218b43059305a953683b
:10251000126802910a21009701912000fff7bcfc8c
:10252000236929185a1e059b121a009330003b009c
:10253000fff7b0fd7368db0503d56368984200dae6
:06254000180007b0f0bd19
:020000040000fa
:022546007047dc
:020000040000fa
:1025480030b5bff35f8f62b64ef20013cef20003d0
:1025580040f200301a580d4d2a40c02109040a43a0
:102568001a500420186040f220341a592a401143a6
:102578001951586040f224315a58054802404cf22b
:10258800000002435a5020225a6030bdffff00ff6e
:04259800ff00ffff42
:020000040000fa
:10259c0010b542f24753c0f20003984742f247533a
:1025ac00c0f20003984700f011fe40f20003c0f2a5
:1025bc0000037f2293434ef60052cef2000293604a
:1025cc0042f28933c0f20003984742f24753c0f2fb
:1025dc000003984742f24753c0f200039847fff7b5
:0425ec0016fdfee7f3
:020000040000fa
:1025f000f8b505000c00002015b300f0b6fad4b110
:10260000002040f20042c4f200220421072605e027
:10261000178d4300ef52013084420dd0137e0b42e0
:10262000fcd0538b334207d153683340012befd09a
:10263000138d2b54efe72000201a44426041c0b2b2
:02264000f8bde3
:020000040000fa
:022642007047df
:020000040000fa
:1026440040f20043c4f2002340f20412c4f2310207
:102654001a600e4a9a81c02292025a6040f20042e5
:10266400c4f20022d369002bfcd140f20043c4f22f
:1026740000231a6802210a431a6040f20042c4f29d
:102684000022d369002bfcd17047c04641f1ffff03
:020000040000fa
:1026940070b5c668856804000a00ae4211d10120f5
:1026a400002100f0d5fcc043c943431c03d00b4bad
:1026b4001a68104018604b1c03d0084a536819402c
:1026c4005160012319006268b56011439a43ee60ba
:1026d4006160a41822681343236070bd10040020b5
:020000040000fa
:1026e40070b5040016001d00022a1ad043689b0628
:1026f40017d439b90db940f2004528000830fef767
:102704005bff010020236268a16013436360230020
:10271400e5603433ff22012e00d10a221a70024be5
:0c272400e362002070bdc0469f1f000053
:020000040000fa
:1027300037b56b46dd1d836a0400297063b1636998
:10274000a26a93420fd3e36a01222900200098472e
:10275000012805d1287805e000f064fc0028eed0bf
:10276000012040423ebd220034321278287852b215
:0c2770009042e8d05a1c62611870f3e738
:020000040000fa
:10277c00f0b50f00150087b0039007220e4904a88e
:10278c001c0000f0a9fcbb687e6802933f6805b989
:10279c0004ad1cb9280000f000fd0400002e02db83
:1027ac00b44200d934000097029b22002900039800
:0c27bc00fff76afc07b0f0bdf031000030
:020000040000fa
:1027c80030b401256d054c00e54215d85c00e542a2
:1027d80012d80c001c436400044314430fd005d2e4
:1027e80082428b418041013030bc70479042994110
:1027f8008041013030bc7047002030bc7047012058
:0428080030bc704729
:020000040000fa
:10280c0070b5d0b1d9b1002540f20042c4f200221b
:10281c000124072605e06b00c35a13850135a94234
:10282c0009d0137e2342fcd053683340012bf2d0e5
:10283c00435d1385f2e7012070bd0020fce7012009
:02284c00fae7a9
:020000040000fa
:02284e007047d1
:020000040000fa
:1028500010b5054c227832b9044b13b1044800e09e
:1028600000bf0123237010bd680600200000000097
:1028700000000000034b10b51bb10349034800e002
:1028800000bf10bd000000006c060020000000002a
:020000040000fa
:102890000c4a036810b5546a0b4a591e121b914228
:1028a0000ad92bb10c220120084b40421a6010bdfe
:1028b000102202600020fae70f22173393430360cf
:1028c000f8e7c04628060020efffff7fb006002093
:020000040000fa
:1028d000002b11d1002a0fd1002900d1002802d0ed
:1028e0000021c943081c07b4024802a14018029005
:1028f00003bdc0461109000003b4684601b5029843
:10290000fef7b2f8019b9e4602b00cbc7047c04671
:020000040000fa
:10291000030010b51a78202a0dd0110009390429b6
:1029200009d900212b2a02d02d2a01d101310133ee
:1029300000200a2404e00133ece760430133801aed
:0e2940001a78303a092af8d901b9404210bd80
:020000040000fa
:10294e0030b401256d054c00e54215d85c00e5421a
:10295e0012d80c001c436400044314430cd005d25f
:10296e0082428b418041404230bc70479042994137
:0e297e008041404230bc7047002030bc7047a2
:020000040000fa
:10298c0030b401256d054c00e54215d85c00e542dc
:10299c0012d80c001c436400044314430cd005d221
:1029ac00904299418041404230bc704782428b41f9
:0e29bc008041404230bc7047002030bc704764
:020000040000fa
:1029ca0010b54ff6837000f0e3fa43f20003c4f245
:1029da0000038022da6140f2ba63c2f20003188867
:1029ea0000f085fa00f0c5fb40f2b863c2f20003ba
:0c29fa001880188880b200f054fb10bd5b
:020000040000fa
:022a0600704717
:020000040000fa
:102a08000309013b1800202b08d940f2ff1293421a
:102a180005d8094adb089b18043b1878704741f62b
:102a280000423f209342f9d8034adb099b18043b34
:0c2a380018781030f2e7c046e4230000dc
:020000040000fa
:102a44000b00496810b50200890603d4190000f090
:102a5400f9f810bd190034310978c0b249b2814285
:102a640007d059699c6aa14203d24c1c5c610a706c
:0c2a7400efe711001800fff759feeae739
:020000040000fa
:102a80001c2101231b04984201d3000c10391b0a9e
:102a9000984201d3000a08391b09984201d3000962
:102aa000043902a2105c40187047c04604030202b9
:0c2ab00001010101000000000000000016
:020000040000fa
:102abc0040f20043c4f2000300221a819a790121ea
:102acc000a439a719b7803221340022b0cd040f2dc
:102adc000043c4f20003013a9a705202c4f200029d
:0a2aec00012193790b42fcd07047e2
:020000040000fa
:102af60043f20003c4f2000380221a607f3a4221a7
:102b06005a5403315a5400214720195411301a548b
:102b160001301a5428381a54313221389854013267
:0a2b26009954093222319954704786
:020000040000fa
:102b300010b541f20003c4f200235b7aa3b141f265
:102b40000003c4f20023987ac0b233229a7258b1bb
:102b500040f29863c2f200031a682ab140f2986307
:0a2b6000c2f200035968904710bd4f
:020000040000fa
:102b6a0040f20043c4f200235b8b5b0713d040f2b0
:102b7a000043c4f2002380221a76793a5a831b7ed4
:102b8a005b0708d540f20043c4f2002304211a8de2
:082b9a001a7e0a42fbd17047cc
:020000040000fa
:102ba200436870b50400d80510d52569954200d94f
:102bb20015002a00606900f094fa226963695b19c2
:102bc200551b0022636125611a7070bddb06fcd4bf
:082bd200200000f08ffaf8e783
:020000040000fa
:102bdc00f0b5040000200b4e4200955d1db9094b69
:102bec00d2185078f0bd216801300f78c0b2af42d6
:102bfc0004d1044b0131d218507821600a28ebd94a
:082c0c00f0e7c046f02f0000c4
:020000040000fa
:102c140010b542f20042c4f20002908980b240f240
:102c24008463c2f2000358600549918192891a684d
:102c34002ab140f28463c2f200039968904710bd40
:042c4400ffc3ffffcc
:020000040000fa
:102c480013b50b006a46d41d5a68c1b22170d2056b
:102c580005d55a69c0b2541c5c61117016bd0122b9
:102c68002100180000f043fa08b12078f6e70120a7
:042c78004042f3e7fc
:020000040000fa
:102c7c00f4464a1805d200f05df801d5c01740089b
:102c8c00604701235b05d34206d200f053f801d50f
:102c9c000120c0074042604701d10042f5d0d01757
:042cac004008704725
:020000040000fa
:102cb000f8b5050001262c68344201d000200ee052
:102cc0002000fff7a1fe070000f084f92868a04269
:102cd000f1d1b043281a3900fff7dcfc0120f8bd20
:020000040000fa
:102ce000f8b5050001276c683c4201d000200de0da
:102cf0002000fff789fe060000f06cf96b68a34224
:0e2d0000f1d128003100fff7c5fc0120f8bd1d
:020000040000fa
:102d0e0070b4012676054c005d00e6420cd8ee420a
:102d1e000ad825430543154303d0994204d1904266
:0e2d2e0002d1012070bc7047002070bc7047bd
:020000040000fa
:102d3c004a0010d2520d03231b02ff33d21a0ad4bd
:102d4c0052421f3209d4400dc90208430123db074c
:0e2d5c001843d040704700207047d0177047d2
:020000040000fa
:102d6a0010b541f60043c4f200239879c0b2062296
:102d7a009a7140f29063c2f200031a682ab140f2d3
:0c2d8a009063c2f200035968904710bd2e
:020000040000fa
:102d9800074b0200196809b90649196018680649fd
:102da80082188a4201d81a60704701204042fbe726
:0c2db800b4060020b0070020b009002085
:020000040000fa
:102dc400020000234832d356591e0b4313700423c8
:102dd400426813402bb11023134343600120404247
:0a2de40070470364c3631800fae7a8
:020000040000fa
:102dee00002380290fdb812901dd83290bd10721e7
:102dfe00136807338b431900083111601a685b683a
:0a2e0e0002604360012318007047c2
:020000040000fa
:102e1800f7b5002507000c002e000192019b9e4289
:102e280001db2800febd62682168380000f0a2f8c6
:082e380001362d180834f1e702
:020000040000fa
:102e4000f7b5002507000c002e000192019b9e4261
:102e500001db2800febd62682168380000f0abf895
:082e600001362d180834f1e7da
:020000040000fa
:102e6800012370b544689c43651a102d0ad942188d
:102e780019432b431160536008320351416010001d
:062e8800fef7a0fd70bd85
:020000040000fa
:102e8e0041f60043c4f200231a7e02210a431a7649
:102e9e0041f60042c4f2002240f20041138c0b4274
:042eae00fcd170479c
:020000040000fa
:102eb20042f20003c4f2002301225a7000229a70e7
:102ec20002321a701203c4f200220221136919425b
:042ed200fcd1704778
:020000040000fa
:102ed60041f60043c4f200231a7802210a431a700d
:102ee60041f60042c4f20022138c9bb2002bfbd1a8
:022ef600704723
:020000040000fa
:102ef80040f2ff33034042f20002c4f20022138181
:102f080042f20002c4f20022042113691942fcd1e2
:022f1800704700
:020000040000fa
:102f1a0042f20043c4f200031a8802210a431a80cb
:102f2a0042f20042c4f20002022113691942fcd1a2
:022f3a007047de
:020000040000fa
:102f3c0041f20003c4f200231a6802210a431a600a
:102f4c0041f20002c4f2002213691942fcd170470d
:020000040000fa
:102f5c000fb407b5054b04aa1b6802ca1868019286
:102f6c0000f04ef803b008bc04b01847a4070020ca
:020000040000fa
:102f7c0010b503000c00002043b9180032b1012138
:0e2f8c002000fff72ffb0028f9d0012010bd18
:020000040000fa
:102f9a0041f20003c4f20023988241f20002c4f213
:0c2faa000022102113691942fcd170476d
:020000040000fa
:102fb60070b50d001400012801d0200070bd21005d
:0c2fc6002800fff720fc0028f9d0f6e7f7
:020000040000fa
:102fd400054a0130c00083582bb90300083b9b18f5
:0c2fe40081184b608350704710040020df
:020000040000fa
:102ff00068076c094c836a9074a07ac00080688866
:0c30000000846c820081286e696c29003d
:020000040000fa
:10300c0013b50400019201aafdf7b6fe6368db0656
:08301c0001d50120404216bd60
:020000040000fa
:1030240010b50400fff7ccfe28b9a368e268a361d9
:0830340063619b18a36210bd4b
:020000040000fa
:10303c00d0400b1cd1409c46203ad34018435242fe
:10304c0063469340184370479140031c90409c4644
:10305c00203a9340194352426346d3401943704778
:020000040000fa
:10306c00006810b5002801da002010bdfff78efeb5
:06307c00431cfad1f8e745
:020000040000fa
:103082008423db0540f22e120121995444f20c22d2
:043092001a62704707
:020000040000fa
:1030980010b500f0a5f8024b1860586010bdc04686
:0430a800a00600205e
:020000040000fa
:1030ac0010b5034b1b68196800f094f810bdc046ae
:0430bc00a407002045
:020000040000fa
:1030c00044f20003c4f2001302225a60013a1a7259
:0230d000704747
:020000040000fa
:1030d2004a424a4110b5520040f20043fff701fb59
:0230e20010bd1f
:020000040000fa
:1030e400002310b59a4200d110bdcc5cc454013306
:0230f400f8e7fb
:020000040000fa
:1030f600c36a10b50bb1984710bd0068fff758ffbb
:02310600fae7e6
:020000040000fa
:1031080003000a7818001a7001310133002af8d137
:023118007047fe
:020000040000fa
:10311a00f0b40125ed076b4041f27324c0f20004bc
:02312a0020473c
:020000040000fa
:10312c0010b5fff7b3fffff78cfbfff78afb10bd61
:020000040000fa
:10313c0003001218934200d1704719700133f9e75c
:020000040000fa
:10314c00494e4600696e66004e414e006e616e003f
:10315c00494e4600696e66004e414e006e616e002f
:020000040000fa
:10316c0010b5fef77bf9029a039bfef779f810bdb8
:020000040000fa
:0e317c0041f60043c4f20023988c80b27047e5
:020000040000fa
:0e318a0040f29863c2f200031860596070476b
:020000040000fa
:0e3198000300413b192b01d820231843704738
:020000040000fa
:0e31a60003001a780ab9181a70470133f9e7c6
:020000040000fa
:0e31b4000300613b192b01d85f2318407047c0
:020000040000fa
:0c31c20010b50400fff79fff200010bdb7
:020000040000fa
:0a31ce0010b50068fff7f0fe10bd19
:020000040000fa
:0831d80010b5fef7d1ff10bd98
:020000040000fa
:0831e00010b5fff72ffc10bd34
:020000040000fa
:0831e800004870472807002091
:020000040000fa
:0731f000286e756c6c2900cc
:020000040000fa
:0631f80001204042704777
:020000040000fa
:0431fe0000207047f6
:020000040000fa
:043204007047c04609
:020000040000fa
:0432080000207047eb
:020000040000fa
:0200000400807a
:044000007f438fb0bb
:020000040000fa
:0200000400807a
:04400400bbfcffff03
:020000040000fa
:0200000400807a
:04c0040000ffffff3b
:020000040000fa
:0200000400807a
:04c04000ffffffff00
:020000040000fa
:0200000400807a
:04c04400fffffffffc
:020000040000fa
:0200000400807a
:04c04800fffffffff8
:020000040000fa
:0200000400807a
:04c04c00fffffffff4
:00000001FF
